:020000040800F2
:10000000C0040020D5000008210D00081D0D0008C7
:1000100000000000000000000000000000000000E0
:1000200000000000000000000000000011120008A5
:1000300000000000000000009510000825180008CE
:10004000ED000008ED00000800000000ED000008D1
:10005000ED000008ED000008ED000008ED000008CC
:10006000ED000008ED000008ED000008ED000008BC
:10007000ED000008ED000008ED000008ED000008AC
:10008000ED0000080000000000000000ED00000886
:1000900000000000ED000008ED000008ED00000881
:1000A00000000000ED000008ED000008ED00000871
:1000B000ED000008ED000008ED0000080000000061
:1000C0000348854600F06CFB0048004721230008E8
:1000D000C0040020064880F3088806488047064888
:1000E0000047FEE7FEE7FEE7FEE7FEE7FEE700006B
:1000F000C004002045180008C100000830B50B46B8
:10010000014600202022012409E00D46D5409D42F1
:1001100005D31D469540491B254695404019154677
:10012000521E002DF1DC30BD70B50024254600289C
:1001300001DA01244042002901DA01254942FFF792
:10014000DDFFAC4200D04042002C00D0494270BDDF
:10015000024670B54A40D30FDB0740002DD04A005D
:100160002AD0010E140E000212020919400A520A86
:100170008418E50104465443000A120A2E04504331
:10018000A4194219200CC543AA18120C0125AD036D
:10019000521C521912047F39240400D0521C1043FF
:1001A00001D44000491EC2B20C06C0092018401CF0
:1001B0004008802A02D003E0002070BD40084000C3
:1001C000002900DA0020184370BD70B502464A408D
:1001D000D50F40004A00ED0740085208002814D00F
:1001E000002A12D0C40DD30D41020120C0055202D5
:1001F000490A520AE41A091812187D34914201D3AF
:10020000641C00E04900002C01DA002070BD0023CE
:10021000914201D3891A0343400849000028F7D1CD
:1002200000290AD0914202D10121C90705E091427B
:1002300001D2012101E00121C943E005C0184019A4
:1002400000F0C0F870BD0000F0B50C465C4085B011
:10025000E40FE40703944C00002664085900944618
:10026000490802460296224321D062460A431ED024
:100270006200570D4A000E032303550D0124024668
:100280002C492405781B1B0B360B401823432643AF
:10029000614600901C46501AB44103D30098401C9C
:1002A000009002E0921800985B41002803DA0020D9
:1002B000014605B0F0BD002001210905074686462C
:1002C00011E064461D46141BB54106D36546521B1A
:1002D000B341744607430C43A646CD07400849087E
:1002E000284392185B4105460D43EAD11046184356
:1002F00013D06046194650407140084306D060460E
:10030000101AB34106D20122002306E00022012385
:10031000DB0702E00122D243531000987446010526
:10032000381C6141029C039D0019694100F08BF863
:10033000BFE70000FD03000010B500229623114620
:1003400000F048F810BD00000EB5054902910021EB
:1003500000910A460B46019100F082F803B000BDFF
:1003600033040000F0B51FB40646002082B00546F5
:100370004024019100901BE0019922460F4630462F
:1003800000F030FA049A059B801A994110D3104668
:100390001946224600F016FA361A8F410197224676
:1003A00001200021009F00F00DFA38184D41009007
:1003B0002046641E0028DFDC019B00982946324657
:1003C00007B0F0BD002904DA401C490001D1400803
:1003D0004000704770B40024050C05D110240004BF
:1003E00002D1002921D01124050E01D100020834C8
:1003F000050F01D10001241D850F01D18000A41C2F
:10040000002801DB4000641C002908D020252E1B99
:100410000D46F540A14000D00121294308430106C3
:100420001B1B000ADB1D02D5002070BC7047DB05DA
:10043000181880180029F8DA401C4900F5D170BC62
:1004400040084000704710B5002B08DA0024401C1B
:10045000614192185B411A4301D14008400010BD30
:10046000F0B51FB482B005460C0003D0084601F079
:100470008BFA02E001F088FA203002460090214613
:10048000284600F09FF9049B059A04460F4618433E
:100490001143084314D0184610431BD00098402144
:1004A0000A1A1846059900F09DF905460E46009A6D
:1004B0000599049800F086F9084305D0012004E06E
:1004C0002046394607B0F0BD0020C11705430E4352
:1004D0002C43374300990E986305401A7905E40AC6
:1004E00000220C43FD0A0A3002D500200146E9E74C
:1004F0000105101969410C9C0D9D00196941FFF718
:10050000A2FFDFE7F0B507460846584087B0C00FA6
:10051000049048000E46590040084908BC1A88411A
:1005200005D2384631461E4617460B46024658004D
:10053000400810434CD0300D039040055900400D49
:10054000490D0590401A0290402872DA18030121E3
:10055000000B09050843019004980092002805D07B
:100560000199524200208841009201900298402156
:100570000A1A0199009800F025F905460C466B46C9
:1005800007CB00F040F9C0197141039A0E0D00230A
:10059000D71756401A467A40164344D0049A002A88
:1005A0002DD0029A012A039A15DC1205C01A914136
:1005B00001263605001C7141D20F059ED20700931B
:1005C000019202962A462346FFF74AFF07B0F0BD84
:1005D00038463146FAE71605224A0F46B218C01AC5
:1005E000B74101210905001C4F4100187F41114608
:1005F00018187941E20F10436D19644113E0E207C6
:100600006D0815436408C2071443039A01261205B6
:10061000C01A91413605001C7141CE074008304395
:100620004908C01851412A462346FFF70CFFCDE781
:10063000FFE7049801224000C117121A00238B41E2
:1006400004983146C417381AA141EEE730B40124AA
:10065000E407634030BC55E730B40124E40761404F
:1006600030BC4FE70000E0FFF0B51FB488B00B9935
:100670000998002448400999C00F49004908099188
:10068000C0070B990090490049080B9109990898F7
:10069000A64608431CD00B990A98084318D009981D
:1006A00001244000420D4800410D09982405000333
:1006B000000B204309900B980003000B20430B9084
:1006C00050181C494018002201901446104605E0BD
:1006D000002001460DB0F0BD032801DA034600E01A
:1006E00003239C46C11A0AAE0AE05F0008ADED5B29
:1006F0004F00F75B7D430027AA187C41491C5B1E15
:100700006145F2DD410004AB5A522104120C0A4348
:10071000240C401C0828DFDB0198029000997046E9
:1007200001910090059B049A07990698FFF798FE9F
:10073000D0E700000DFCFFFF4A0009030123090B6D
:100740001B0519430A4B10B5520D9A4202DA0020DC
:10075000014610BD064B34339A4203DC9A1A00F06E
:1007600041F810BD034BD21800F02CF810BD00006A
:10077000FF030000CDFBFFFF10B5002904DB0124BF
:10078000E40740428C412146002B04DB1C46012338
:10079000DB075242A341994200D1904210BD0000B4
:1007A000064C0125064E05E0E36807CC2B430C3CC4
:1007B00098471034B442F7D3FFF786FC7030000836
:1007C0009030000810B5202A04DB0146203A914001
:1007D000002010BD914020239C1A0346E34019439A
:1007E000904010BD10B5202A04DB0846203AD040C6
:1007F000002110BD0B46D340D0402024A21A9140C6
:100800000843194610BD10B5202A06DBCB17084651
:10081000203A1041C1170B4306E00B461341D0406C
:100820002024A21A91400843194610BD012902D183
:100830000122426108E0022902D10222426103E062
:10084000032901D1CA0482657047002904D0426897
:1008500001231A43426003E042685208520042609A
:100860007047000000B587B00121480200F024FC69
:1008700001A800F00BF900200190702002900020E8
:10088000039000216846017400200590069001A99C
:10089000184800F079F8072300220121154800F0DC
:1008A000B9F8072300220421124800F0B3F8072307
:1008B000002206210F4800F0ADF800200D49C86065
:1008C0000121480400F0E8FB684600F01FFA5221BD
:1008D00068460180012181700021C17069460920AC
:1008E000C00600F0A5F901210248FFF7AEFF07B0EE
:1008F00000BD00000024014070B5044600251148E9
:10090000C0680121A14008430E49C86001210D487B
:1009100000F0AEF800BF01210A4800F019F80028E5
:10092000F9D001210748FFF781FF064800F00CF8D5
:1009300005460448C0680121A14088430149C860B8
:10094000284670BD002401400146086880B2704707
:1009500010B502460020012903D15369D807C00F02
:1009600011E0022904D153690224234058080AE007
:10097000032908D1936D0C052340002B01D00123DE
:1009800000E00023184610BD42680B4B1A4042603D
:100990000B684A681A4343681A4342608268074BEF
:1009A0001A4082600B694A691A438B681A4383684C
:1009B0001A438260704700000FBCFFFF8FF1F9FF00
:1009C000F8B50F4804882046FFF7B6FC07460D49E6
:1009D000FFF7BEFB05468B21C905FFF7F6FB064670
:1009E0000120FFF789FF084908800420FFF784FFF2
:1009F000064908800620FFF77FFF05490880F8BDFB
:100A0000E0F7FF1F33335340200000202200002076
:100A100024000020F0B50C461B071B0F21460829B7
:100A20000FD90907090F0839456F8F000F26BE40FF
:100A3000B5434567456F8E001F46B7403D43456748
:100A40000BE0056F8F000F26BE40B5430567056FAD
:100A50008E001F46B7403D430567C5680126A64086
:100A6000B543C560C5680126A6403543C560F0BDE5
:100A7000002905D08268FF2301331A43826004E015
:100A80008268FF2301339A4382607047002101602E
:100A900041608160017301614161704704480068F1
:100AA000002804D002480068401E014908607047D1
:100AB00010000020FFB583B00C4602940020019086
:100AC000002726E000261CE0721C039951430846CB
:100AD000791CFFF713FB0546A54201D9281B00E04E
:100AE000601B05460298A84204D902950598067035
:100AF000069807700298002802D10120019002E0B8
:100B0000761C402EE0D300BF0198002800D002E000
:100B10007F1C042FD6D300BF029807B0F0BD0000A1
:100B2000014600220E4B1A61CA005A6100229A61E6
:100B300005221A6100BF0A4A1069C207D20F002AB3
:100B400004D0012212040240002AF4D0044A12699F
:100B500052085200024B1A6100229A61704700004D
:100B600000E000E008B50121480400F095FA0121F9
:100B7000880400F091FA0121080500F08DFA0121A6
:100B8000C80400F089FA684600F0C0F823496846B6
:100B90000180012181701021C17069460920C006C1
:100BA00000F046F8684600F0B1F81D49684601803B
:100BB000012181701021C17069461A4800F038F88F
:100BC000684600F0A3F80121C903684601800121AD
:100BD00081701021C1706946134800F029F86846F9
:100BE00000F094F8032149036846018001218170D7
:100BF0000421C17069460C4800F01AF8684600F0FC
:100C000085F80C2168460180012181701021C17096
:100C10006946064800F00CF808BD000021F9000004
:100C2000FEF400000004004800080048000C0048E2
:100C3000F8B50246CD782F073F0FCD781026354006
:100C4000002D01D08D782F431446002011E0850639
:100C50002B0E0D88012686403540002D07D02568D3
:100C60000F269E40B5433E469E4035432560451CB9
:100C7000E8B20828EBDB141D0D882D12009500202A
:100C800011E085062B0E01258540009E3540002D84
:100C900007D025680F269E40B5433E469E4035430B
:100CA0002560451CE8B20828EBDBCD78282D04D15F
:100CB00055690E883543556106E0CD78482D03D13E
:100CC00015690E8835431561F8BD70B54D07EB0EFB
:100CD000082902DA0546203501E0054624352C4670
:100CE0000F269E402568B54316469E403543256035
:100CF00070BD024690680840002801D0012070476E
:100D00000020FCE741617047016170470021C94341
:100D10000180022181700421C170704700BFFEE78D
:100D2000704700000349086000BF024909680029B4
:100D3000FBD170470C00002010B500F041F8E12015
:100D4000400200F003F800F065F810BD10B586B061
:100D500004460121880300F0AFF901A800F0F7FD77
:100D6000019430216846017200218172017301747F
:100D70001021C18101A9114800F0AAFD01210F48ED
:100D800000F096FD0121480400F086F901220921B6
:100D9000C806FFF79AFF05A8FFF7B8FF012149022F
:100DA00068468182012181751821C17505A9092034
:100DB000C006FFF73DFF06B010BD0000003801403F
:100DC00070B500F0ADF905467D21C900FFF796F931
:100DD0000446601E0D49884201D901200CE0601EC6
:100DE0000B4948610321081F00F0F4FD0020084969
:100DF0008861072008610020002801D000BFFEE7BD
:100E00000021481E00F0E6FD70BD0000FFFFFF005E
:100E100000E000E0F0B585B03AA000F0A5FD3FA0ED
:100E200000F0A2FD43A000F09FFD434840680C2164
:100E30000840002806D0042808D008280AD00C282A
:100E40001BD116E03DA000F08FFD17E044A000F09C
:100E50008BFD13E0384840300069C007C00F002800
:100E600003D048A000F080FD02E053A000F07CFD1C
:100E700004E05EA000F078FD00E000BF00BF68461F
:100E800000F02AF92BA000F06FFD0098FFF75CFA44
:100E9000064600225E4BFFF7D7F9044622460B4672
:100EA0005CA000F061FD0198FFF74EFA06460022B3
:100EB000574BFFF7C9F9044622460B465DA000F0E8
:100EC00053FD0298FFF740FA04460022504BFFF70B
:100ED000BBF9064632460B465EA000F045FD03987E
:100EE000FFF732FA04460022494BFFF7ADF90646F8
:100EF00032460B465FA000F037FD0EA000F034FD37
:100F000005B0F0BD0D0A424F415244203A204D69D0
:100F10006E692D4630313434000000000D0A4D4317
:100F200055203A204D4D333246303134344336501B
:100F3000000000000D0A0000001002400D0A485396
:100F40004920757365642061732073797374656DCE
:100F500020636C6F636B20736F75726365000000B4
:100F60000D0A4853452075736564206173207379B9
:100F70007374656D20636C6F636B20736F75726340
:100F8000650000000D0A504C4C2028636C6F636BA9
:100F90006564206279204853452920757365642073
:100FA00061732073797374656D20636C6F636B205C
:100FB000736F7572636500000D0A504C4C202863F6
:100FC0006C6F636B656420627920485349292075F2
:100FD0007365642061732073797374656D20636C2D
:100FE0006F636B20736F7572636500000D0A4C535D
:100FF0004920757365642061732073797374656D1E
:1010000020636C6F636B20736F7572636500000003
:1010100080842E410D0A535953434C4B2046726530
:101020007175656E6379203A2025372E3366204D21
:10103000487A00000D0A48434C4B20202046726538
:101040007175656E6379203A2025372E3366204D01
:10105000487A00000D0A50434C4B312020467265FF
:101060007175656E6379203A2025372E3366204DE1
:10107000487A00000D0A50434C4B322020467265DE
:101080007175656E6379203A2025372E3366204DC1
:10109000487A000070470000002905D0054A5269CF
:1010A0000243044B5A6104E0024A52698243014BF5
:1010B0005A61704700100240002905D0054A926924
:1010C0000243044B9A6104E0024A92698243014B55
:1010D0009A6170470010024038B504460DA00068C0
:1010E000009000F051F8206000F01AF8606000F005
:1010F00027F8A06000F036F8E060074A5268074B16
:101100001A4012096B46995CE068FEF7F7FF206110
:1011100038BD0000020406080010024070400000C4
:1011200010B500F031F804494968F022114009096E
:10113000024A515CC84010BD00100240520000201D
:1011400010B5FFF7EDFF054949680722120211406B
:10115000090A034A515CC84010BD0000001002405B
:101160005200002010B5FFF7DBFF05494968072250
:10117000D2021140C90A034A515CC84010BD0000A8
:101180000010024052000020F8B51E4840680C21B3
:101190000840042802D008282ED101E01A4C2DE086
:1011A000184840300069C007C00F00280AD0154811
:1011B0004030006902210840002801D0134802E0B5
:1011C000114800E0104807460E4840300069FF21F2
:1011D00009040840000C451C0A48403000690721FA
:1011E00009020840000A461C394669430846314650
:1011F000FEF784FF044601E0034C00BF00BF204619
:10120000F8BD00000010024000127A0000093D0005
:101210007047000006480068002805D004480068B0
:10122000401E0349086002E0092001490860704738
:1012300008000020FEB5002700200190002672481B
:101240000078401C7049087008460078052801DDC8
:10125000002008700121C9030920C006FFF752FDD4
:1012600008216A48FFF74EFD10216848FFF74AFD44
:1012700020216648FFF746FD40216448FFF742FD04
:1012800080216248FFF73EFD614805886148048877
:101290005D480078030000F08EFB0604224B687B5B
:1012A00094B55D4885420ADB00214C2000F0B4F97A
:1012B0000121C9030920C006FFF726FD0EE00A211F
:1012C0002846FEF731FFCFB20021384600F0A4F9DE
:1012D0000121C9030920C006FFF716FD92E04E4820
:1012E000854208DB00214F2000F096F9082147488D
:1012F000FFF70AFD1BE00A212846FEF715FF00282C
:1013000002D1FF2001900AE064212846FEF70CFF7D
:1013100000910A210098FEF707FFC0B2019000215A
:10132000019800F079F908213848FFF7EDFC69E0F1
:101330003948854208DB0021FF2000F06DF91021BB
:101340003248FFF7E1FC0FE064212846FEF7ECFE8F
:10135000C6B2002E00D1FF260021304600F05CF915
:1013600010212A48FFF7D0FC4CE00121C903204698
:10137000884304460A212046FEF7D6FECFB201215B
:10138000384600F049F920212048FFF7BDFC39E03C
:101390000121C90320468843044664212046FEF704
:1013A000C3FE00910A210098FEF7BEFEC0B2019074
:1013B0000121019800F030F940211448FFF7A4FC06
:1013C00020E00120C0032040002809D0FE26012192
:1013D000304600F021F980210C48FFF795FC10E021
:1013E00064210C480088FEF79FFEC6B2002E00D193
:1013F000FF260121304600F00FF980210348FFF756
:1014000083FC00BF00BFFEBD0000002000040048B8
:101410000200002004000020FFFF000010B500F0D3
:1014200001F810BD10B586B00024614800680121A4
:1014300008435F49086000BF5D480068022108401A
:101440000028F9D05B485C4908605C4800681021BE
:1014500008435A49086008460068C008C000086090
:1014600055490968481E5649FEF748FE05900598FB
:101470004407640F514800682043504908604C48B5
:101480004068504908404A494860084640689021F1
:101490000843474948600846406848604648006835
:1014A0004449884207D94248406805210902084357
:1014B0003F4948600BE0404800684349884206D9EC
:1014C0003B4840680121890208433949486001AB23
:1014D00002AA394801683D48FFF7ECFA3448403029
:1014E000006980088000324940310861084600697F
:1014F000400840000861684600794007400F0390AB
:101500006846007A4006400E04902948C069890563
:1015100008432749C8612648403000692C490840E3
:1015200023494031086103980402049800040443ED
:1015300008460069204308611D480068012109062A
:1015400008431B49086000E000BF194800680121FA
:10155000490608400028F7D01548406880088000F8
:101560001349486008464068022108431049486012
:1015700000E000BF0E4840680C2108400828F8D160
:101580000120FFF7CDFA0A48406810218843084936
:1015900048600120FFF7C4FA05484068802188436D
:1015A000034948600120FFF7BBFA06B010BD0000F8
:1015B0000010024000A24A04640000200020024003
:1015C00000366E010FC0FFFF0051250200127A00A5
:1015D000FFF800FF10B50446002C05D0202109209B
:1015E000C006FFF791FB04E020210920C006FFF7A9
:1015F00089FB10BD10B50446002C05D00121C9039C
:101600000448FFF781FB04E00121C9030148FFF70B
:1016100079FB10BD0008004870B505460E46002451
:10162000002E6ED1FF2D00D111E0FE2D01D102243C
:101630000DE04F2D02D17848847A08E04C2D02D17C
:101640007548C47A03E0092D01DC7348445D8020AD
:101650002040002806D0012189030920C006FFF799
:1016600051FB05E0012189030920C006FFF74CFB6F
:1016700040202040002804D008216848FFF742FBA2
:1016800003E008216548FFF73FFB202020400028A9
:1016900006D0012149030920C006FFF733FB05E00E
:1016A000012149030920C006FFF72EFB102020402E
:1016B000002806D0012109030920C006FFF722FBFC
:1016C00005E0012109030920C006FFF71DFB0820E2
:1016D0002040002806D00121C9020920C006FFF7DA
:1016E00011FB05E00121C9020920C006FFF70CFB30
:1016F00004202040002805D004214848FFF702FBC1
:1017000004E015E004214548FFF7FEFA02202040DE
:10171000002806D0FF2101310920C006FFF7F2FAA8
:1017200079E0FF2101310920C006FFF7EDFA72E0F0
:10173000012E70D1FF2D01D1002407E0FE2D01D133
:10174000022403E0092D01DC3348445D8020204061
:10175000002805D00121C9033148FFF7D3FA04E07E
:101760000121C9032E48FFF7CFFA4020204000286E
:1017700005D0012189032A48FFF7C4FA04E00121BA
:1017800089032748FFF7C0FA20202040002805D011
:10179000012109032248FFF7B5FA04E001210903FA
:1017A0001F48FFF7B1FA10202040002805D0012182
:1017B00089021B48FFF7A6FA04E0012189021848B4
:1017C000FFF7A2FA08202040002804D00421144882
:1017D000FFF798FA03E004211148FFF795FA042077
:1017E0002040002805D0012149030D48FFF78AFA5F
:1017F00004E0012149030A48FFF786FA022020404D
:10180000002804D002210648FFF77CFA03E00221F9
:101810000348FFF779FA70BD982A0008000C0048C9
:101820000004004810B506480068002804D00448A9
:101830000068401E0249086001F0B0F810BD0000C9
:101840000C00002010B51648006801210843144917
:101850000860084640681349084011494860084636
:101860000068114908400E490860084600680121D7
:10187000890488430A49086008464068C32109046E
:1018800088430749486008460068084908400449F9
:1018900008609F2000048860FFF7C0FD10BD0000B5
:1018A000001002400CC0FFF8FFFFF6FEFFFF8F00A4
:1018B0008269520852000A4382617047024690686A
:1018C0000840002801D0012070470020FCE70000FC
:1018D00070B504460D460026E06930218843297919
:1018E0000843E061E06944218843A9790843E06145
:1018F000E06980088000297A0843E061A069182126
:10190000884369890843A061A06904218843297B31
:101910000843A0610B48844203D1FFF723FC06462D
:1019200002E0FFF70DFC064630462968FEF7E6FBAD
:101930000009206230462968FEF7E0FB0007000F2F
:10194000606270BD00380140CAB2026070474B212E
:10195000C9010160302101710021817101721821DA
:1019600041810021017370470FB410B503A9044BE6
:10197000044A029800F026F910BC08BC04B01847CD
:10198000FD220008780000202021020C01D0102147
:101990001046020A01D010460839020901D010464B
:1019A000091F820801D01046891E420801D0881EF6
:1019B0007047081A704730B47446641E2578641C5A
:1019C000AB4204D3635D5B00E31830BC18471D468F
:1019D000F8E7000010B5002819DB1A4A03231B02A0
:1019E000D21883089B00D2588307DC0EFF23A34044
:1019F0009A438B071B0E8407E40EA3401A43114B36
:101A0000032424021B198408A4001A5118E00E4A6A
:101A100003071B0F083B9B089B00D2588307DC0E73
:101A2000FF23A3409A438B071B0E8407E40EA340B9
:101A30001A43054B0407240F083CA408A4001A51BC
:101A400010BD000000E100E01CED00E002E008C86D
:101A5000121F08C1002AFAD170477047002001E028
:101A600001C1121F002AFBD170470000F0B51FB45E
:101A700084B007980699020D014314D04A484B4997
:101A80001018484305140F9801280E981CD0281AE6
:101A9000401C0024464E47490094019102900028C2
:101AA00014DA474227E00F98012443A3012808D005
:101AB000002104980F9A84600360C260416009B0FD
:101AC000F0BD0E98C143F4E74042E2E7074612E05A
:101AD000F80707D02246334601990098FEF7C4FD67
:101AE000019100902246334610461946FEF7BCFD90
:101AF00004460E467F10002FEAD10298019B002871
:101B0000009A0799069802DAFEF7AEFD01E0FEF7AB
:101B10009BFB04460E460022284BFEF72DFE03D801
:101B20000020C043014607E00022254B20463146F5
:101B3000FEF7E8FCFEF700FE102409E0002C0ADBAB
:101B40000A220023FEF70EFC059B30321A55641E54
:101B500002460A43F2D11122641C059B121B1C1978
:101B60000F9B012B03D0012308430ED10AE0084349
:101B700004D011200E9000200F9084E70E98151AC3
:101B80006D1E0BE00E98824202DD00236D1C03E007
:101B9000824201DA00236D1E002BEED004980F99CB
:101BA0008260C16030C08AE701FCFFFF104D000079
:101BB000000024400000F03F300000000000F0432F
:101BC0000000E03FFFB597B00646002518E2252843
:101BD00077D100242746FD49049400E00443761C95
:101BE00032780120203A90400842F7D130782A28F4
:101BF0000ED00222307801463039092916D80499CE
:101C00000A235943303940181443761C0490F1E7F5
:101C1000189802C804911890002904DA01204003A2
:101C200004434842049002200443761C30782E2856
:101C300014D1042004437078761C2A2809D11898FE
:101C4000761C80C8189009E00A214F43303FC7191D
:101C5000761C3078014630390929F5D930786C285E
:101C600010D006DC4C281AD068280ED06A2817D16C
:101C700004E0742813D07A2812D110E00120400526
:101C800004430CE00121090501E0032109050C438F
:101C90007178814203D1012000052418761C761C3E
:101CA0003078119066280BD013DC58287DD009DCE1
:101CB00000287BD04528F6D04628F4D047281AD1F2
:101CC000A5E118E0632835D0642870D0652812D1CA
:101CD0009DE170286CD008DC6728F1D069287BD0A2
:101CE0006E280DD06F2806D1BAE073282ED0752843
:101CF00071D0782859D01A9A199990476D1C7EE1B5
:101D00006002400F022809D003280DD0042818983B
:101D100001680DD00D60001D189070E11898EA1749
:101D200001680D604A60F6E7189801680D80F2E7D7
:101D30000D70F0E718986A4601781172001D18902E
:101D40000020507202A80090012005E0189802C8F7
:101D5000189000200091C04361070DD5002101E0DB
:101D60000199491C0191B94212DA8142F8DB009ACB
:101D7000515C0029F4D10BE0002101E00199491CDC
:101D800001918142FADB019A0099895C0029F5D121
:101D9000019904981A9B471A21463846199A00F06F
:101DA00097FA0199401945180BE04FE02CE113E038
:101DB0004EE0009800990078491C00911A9A1999F0
:101DC00090470198401E0190401CF2D121463846B0
:101DD0001A9B199A10E137E00A2000210090019126
:101DE0006002410F022907D0189A01CA1892C2173F
:101DF0009446032908D00AE01898C01DC108C900FC
:101E000005C91891944607E000B2C2179446042908
:101E100002D140B2C1178C4600226146944506DAD1
:101E20000A460021404291418C462D2102E02105C5
:101E300004D52B216A461173012103E0E10701D08B
:101E40002021F7E7029155E00A200AE0102008E07F
:101E5000102000900021042004430191082703E092
:101E600008200021019100906002410F022907D053
:101E7000189A01CA189200229446032908D008E053
:101E80001898C01DC108C90005C91891944603E0FF
:101E900080B2042900D1C0B200210291210729D5C6
:101EA0001199702906D0009A1021019B4A401A43CB
:101EB00005D00EE040216A461173012108E0614619
:101EC000014306D030216A461173119951730221E2
:101ED0000291009A0821019B4A401A430AD16146A7
:101EE000014301D1610705D530216A4611730121F3
:101EF0007F1E02911199582904D035A10E910DA988
:101F00000D910DE037A1F9E76146019B009AFEF7BC
:101F100029FA0E9B8C469B5C0D9A521E0D921370F3
:101F200061460143F0D10D9805A9081A20300190AF
:101F3000600703D501200004844300E001270198D5
:101F4000874201DD381A00E0002001990090411815
:101F5000029809180498401A0490E00306D4214618
:101F60001A9B199A049800F0B3F94519002706E066
:101F700003A81A9AC05D199990476D1C7F1C02989E
:101F80008742F5DBE0030CD521461A9B199A049889
:101F900000F09EF9451904E01A9A302019999047EB
:101FA0006D1C0099481E00900029F5DC08E00D9892
:101FB0000D990078491C0D911A9A199990476D1C3A
:101FC0000199481E01900029F1DC63E10928010014
:101FD000303132333435363738396162636465669F
:101FE0000000000030313233343536373839414261
:101FF000434445460000000000F05AF94519761C9C
:102000003078002800D0E2E528461BB0F0BD60071C
:1020100000D406271898C01DC108C90048680A687E
:102020000831C30FDB071891190001D09CA108E00B
:10203000210501D59BA104E0E10701D09AA100E0B0
:102040009AA1430011985B08109165280CD006DC1A
:10205000452809D046281DD0472841D141E06628AF
:1020600018D067283CD13CE00021112F01DB112062
:1020700000E0781C0191009008A911A8FFF7F6FC78
:10208000139905910021119A15927F1C12980197BE
:10209000009150E00120C00703900120019008A9A1
:1020A000009711A8FFF7E2FC139A149905920022F9
:1020B000119B009212981593059A0192002901D064
:1020C000104602E0791C40180190381A01D5019899
:1020D00004E04042401E0090781C0190C01B02901A
:1020E00043E0012F00DA01270021112F01DD11202B
:1020F00000E038460191009008A911A8FFF7B6FC4E
:1021000013990591119A0021129815920091019747
:1021100021070CD40599B94201DB019900E0019136
:10212000012904DD159A491E515C302906D0B842B8
:1021300001DA011D05DA0121029115E00199491E1C
:10214000EDE7002805DC0099411800910199091A72
:1021500003E0019A411C914200DD01910099401A6F
:10216000401C02900120C0070390200706D402996A
:102170000198814202DB0020C043029000206946A2
:10218000C87707AF012103980337C907884224D0D5
:10219000022011902B201290039800280CDA404264
:1021A00003902D20129007E00A210398FDF7A6FF67
:1021B00030317F1E039039701199481E119000290B
:1021C000F2DC03980028EFD1791E1298087030785D
:1021D000202108404530BF1E387006A8C01BC01D16
:1021E000039010980078002800D001200199411830
:1021F0000298C0170918039809180498401A401E3D
:102200000490E00306D421461A9B199A049800F022
:102210005FF8451910980078002803D01A9A199988
:1022200090476D1CE00324D521461A9B199A049807
:1022300000F04EF845191CE00098002807DB0099D3
:102240000598884203DD1598405C199901E01999B9
:1022500030201A9A904700986D1C401C00900298FC
:10226000401E0290002804D11A9A2E2019999047F6
:102270006D1C0199481E01900029DDDC05E03878CD
:102280001A9A7F1C199990476D1C0399481E039058
:102290000029F4DC21461A9B199A0498ACE6000048
:1022A0002D0000002B0000002000000000000000B6
:1022B000F8B5044600251E461746880404D405E0F8
:1022C00039462020B0476D1C641EF9D52846F8BD5C
:1022D000FFB50446002581B01E46C80301D530274E
:1022E00000E02027880404D505E038460399B0476C
:1022F0006D1C641EF9D5284605B0F0BD70B50446C6
:102300000D46E1B20548FFF71FFB00BF012103485E
:10231000FFF7D4FA0028F9D0204670BD00380140FC
:10232000FEF70AFD0920C006406AFF21090508439F
:102330000921C9064862C820FEF7F4FCFEF712FC2A
:10234000FEF790FA04A0FFF70FFB6420FEF7EAFC0B
:1023500001E000F00FF8FCE70D0A206D61696E20C6
:1023600053746172742E2E323032342E322E323249
:102370002E000000F0B589B000BF00BF00BF00BF55
:102380000026002500BF00BF00BF00BF0020019055
:102390000024C249088001200003C149088000BF11
:1023A000FEF70EFBBD480088BE490988884203DA63
:1023B000BC480088B9490880B9480088B9490988EB
:1023C000884203DDB7480088B5490880B6480068F0
:1023D000002822D1B5480068002828D1FF20F53018
:1023E000B2490860B2480078002808D00020B049FF
:1023F000087001210920C006FEF784FC07E00120D7
:10240000AB49087001210920C006FEF77DFCA848F1
:102410000178A8A0FFF7A8FA09E00020A4490870F5
:10242000A249086001210920C006FEF76BFC00F0FC
:102430006BFAA6480068002800D100E0B0E700BFB2
:10244000C820A249086095490988FF22F532514306
:1024500008469F49FDF768FE0790079949089D4A7D
:10246000514308467D21C900FDF748FE06908B497F
:102470000988FF22F532514308469549FDF754FE7D
:10248000039087490988FF22F53251430846904955
:10249000FDF74AFE029003990298081A0590FF2161
:1024A000F5310598884201D9084605907D48038892
:1024B0007B4802887948018887A0FFF755FA95A0E4
:1024C000059B029A0399FFF74FFA9C48007805286C
:1024D0000BDA9A4909784900994A05985052974869
:1024E0000078401C9549087059E000250CE0680010
:1024F0009349085A041968000B5A2246294691A0AC
:10250000FFF732FA681C85B2052DF0DB0521204665
:10251000FDF7F4FD0446214692A0FFF725FA8E2C24
:1025200002D8A01E46081EE0FF205730844207D87C
:102530000A20444313212046FDF7E0FD064612E041
:10254000FF206930844207D80A20444312212046E4
:10255000FDF7D4FD064606E00A204443122120463A
:10256000FDF7CCFD0646282E03D8002082490880BE
:1025700008E08C2E03D801207F49088002E0022069
:102580007D4908807C48008800906C48037822468A
:1025900031467AA0FFF7E8F90020684908707E27E5
:1025A00080490988FF22F532514308464849FDF722
:1025B000BBFD80B20890A6200490002517E0E9003A
:1025C000794A89188988FF22F53251430846FF214C
:1025D0004B31FDF7A9FD80B201900899019888421E
:1025E00003DAE80070490F5804E0681C85B20498CB
:1025F0008542E4DB00BF6DA0FFF7B6F92B463A46F3
:102600006BA00899FFF7B0F9002F15DA009701DBEE
:10261000009901E00099494208467D21C900FDF773
:1026200083FD88B26B490880084600880121C903F0
:1026300008436849088007E07D21C9003846FDF756
:1026400073FD88B2634908802A2F06DAFF20913093
:10265000844202D260481449086000F0DDF85F4807
:102660000078002817D000205C4908705C48816819
:102670005CA0FFF779F960490988FF22F5325143E0
:1026800008461349FDF750FD00905B4802885BA0A7
:102690000099FFF769F909B0F0BD00002C00002097
:1026A0002E000020200000203400002038000020F0
:1026B0003C0000200D0A5761726E696E675F426CC4
:1026C000696E6B2825642920200000002800002066
:1026D000FF0F0000C30200000D0A204375727265EF
:1026E0006E744144435F4D4158282564292C204392
:1026F000757272656E744144435F4D494E2825647E
:10270000292043757272656E7441444328256429FB
:10271000000000000D0A204D6178566F6C2825647A
:10272000292C204D696E566F6C2825642920436141
:102730006C566F6C282564290000000027000020DB
:102740007C0000200D0A20692825642920566F6C22
:102750004275662825642920202062756628256434
:10276000290000000D0A2041564520566F6C427525
:102770006628256429000000020000200D0A20437D
:10278000757272656E746D41282564292C20566F10
:102790006C4275662825642920464E442825642904
:1027A0000000000022000020BC2A00080D0A2000C2
:1027B0000D0A2054656D70566F6C282564292074AD
:1027C000656D705F62756628256429202825642957
:1027D0000000000004000020B80B000026000020CC
:1027E000000800480D0A204750494F432D3E4944F8
:1027F000525B25785D000000240000200D0A205067
:102800004136566F6C28256429205041365F41447B
:10281000432825642920200010B50024284800788A
:10282000002845D1FEF7CCF826490988FF22F53269
:10283000514308462449FDF777FC04462D2C03D864
:1028400022482349086021E0A02C03D821482049D0
:1028500008601BE0FA2C04D87D2000011C490860A8
:1028600014E0FF202D30844203D81B48184908602B
:102870000CE0FF205530844204D87D20C00014496C
:10288000086003E0FF20F5301149086001200C4981
:1028900008700F480068FF385F380D490860084627
:1028A00022460368074801880CA0FFF75DF806E0A0
:1028B00007480068002802D10120FEF78BFE10BDFA
:1028C0004400002024000020FF0F0000B80B00008F
:1028D00040000020C4090000DC0500000D0A205063
:1028E00041365F4144432825642920205041365613
:1028F0006F6C2825642920504F4E5F74696D657296
:10290000282564290000000070B50024002501215D
:1029100089031D48FEF7EDF9002800D001240121AC
:1029200049031948FEF7E5F9002800D001251748AA
:102930000078A0421DD015480470FF202D301449A6
:10294000086014480078002807D101201149087058
:10295000FF202D301049086014E00E48007801284F
:1029600010D10D48006800280CD10120FEF742FE6E
:1029700008E007480068002804D1FEF73BFE00206D
:102980000449087070BD0000000800485100002094
:1029900048000020500000204C00002010B53348B3
:1029A0000068002805D031480068401E2F490860A3
:1029B00002E063202D4908602D480068002805D0FA
:1029C0002B480068401E2A49086002E00920284977
:1029D000086028480068002805D026480068401E86
:1029E0002449086005E02448224908600120234961
:1029F000087023480068002804D021480068401E61
:102A00001F4908601F480068002804D01D4800685E
:102A1000401E1C4908601C480068002804D01A4861
:102A20000068401E1849086018480068002804D053
:102A300016480068401E15490860FEF7EBFBFEF7DC
:102A4000F9FBFEF72BF812480068002804D0104864
:102A50000068401E0E4908600E480068002804D037
:102A60000C480068401E0B49086010BD180000208B
:102A7000140000201C000020E703000026000020B6
:102A800028000020340000203800002040000020F2
:102A9000480000204C000020FC60DAF266B6BEE47C
:102AA000FEF6FC1C4750494F5F4C45445F546F672E
:102AB000676C655F53616D706C650000D8FFFFFF48
:102AC00040010000D9FFFFFF3F010000DAFFFFFFD8
:102AD0003F010000DBFFFFFF3E010000DCFFFFFFC6
:102AE0003D010000DDFFFFFF3D010000DEFFFFFFB5
:102AF0003C010000DFFFFFFF3B010000E0FFFFFFA4
:102B00003A010000E1FFFFFF39010000E2FFFFFF93
:102B100038010000E3FFFFFF37010000E4FFFFFF83
:102B200036010000E5FFFFFF35010000E6FFFFFF73
:102B300033010000E7FFFFFF32010000E8FFFFFF65
:102B400031010000E9FFFFFF2F010000EAFFFFFF56
:102B50002E010000EBFFFFFF2C010000ECFFFFFF48
:102B60002B010000EDFFFFFF29010000EEFFFFFF3A
:102B700028010000EFFFFFFF26010000F0FFFFFF2C
:102B800024010000F1FFFFFF22010000F2FFFFFF20
:102B900020010000F3FFFFFF1E010000F4FFFFFF14
:102BA0001C010000F5FFFFFF1A010000F6FFFFFF08
:102BB00017010000F7FFFFFF15010000F8FFFFFFFE
:102BC00012010000F9FFFFFF10010000FAFFFFFFF4
:102BD0000D010000FBFFFFFF0B010000FCFFFFFFEA
:102BE00008010000FDFFFFFF05010000FEFFFFFFE1
:102BF00002010000FFFFFFFFFF00000000000000D7
:102C0000FC00000001000000F900000002000000CC
:102C1000F600000003000000F300000004000000C4
:102C2000F000000005000000EC00000006000000BD
:102C3000E900000007000000E600000008000000B6
:102C4000E200000009000000DF0000000A000000B0
:102C5000DB0000000B000000D80000000C000000AA
:102C6000D40000000D000000D00000000E000000A5
:102C7000CD0000000F000000C9000000100000009F
:102C8000C500000011000000C2000000120000009A
:102C9000BE00000013000000BA0000001400000095
:102CA000B700000015000000B3000000160000008F
:102CB000AF00000017000000AC000000180000008A
:102CC000A800000019000000A50000001A00000084
:102CD000A10000001B0000009D0000001C0000007F
:102CE0009A0000001D000000960000001E00000079
:102CF000930000001F0000008F0000002000000073
:102D00008C0000002100000088000000220000006C
:102D10008500000023000000820000002400000065
:102D20007F000000250000007B000000260000005E
:102D30007800000027000000750000002800000057
:102D400072000000290000006F0000002A0000004F
:102D50006C0000002B000000690000002C00000047
:102D6000660000002D000000640000002E0000003E
:102D7000610000002F0000005E0000003000000035
:102D80005C0000003100000059000000320000002B
:102D90005700000033000000540000003400000021
:102DA00052000000350000004F0000003600000017
:102DB0004D000000370000004B000000380000000C
:102DC0004900000039000000470000003A00000000
:102DD000450000003B000000430000003C000000F4
:102DE000410000003D0000003F0000003E000000E8
:102DF0003D0000003F0000003B00000040000000DC
:102E00003A000000410000003800000042000000CD
:102E100036000000430000003500000044000000C0
:102E200033000000450000003200000046000000B2
:102E300030000000470000002F00000048000000A4
:102E40002D000000490000002C0000004A00000096
:102E50002B0000004B000000290000004C00000087
:102E6000280000004D000000270000004E00000078
:102E7000260000004F000000250000005000000068
:102E80002400000051000000230000005200000058
:102E90002200000053000000210000005400000048
:102EA00020000000550000001F0000005600000038
:102EB0001E000000570000001D0000005800000028
:102EC0001C000000590000001B0000005A00000018
:102ED0001B0000005B0000001A0000005C00000006
:102EE000190000005D000000180000005E000000F6
:102EF000180000005F0000001700000060000000E4
:102F000016000000610000001600000062000000D2
:102F100015000000630000001500000064000000C0
:102F200014000000650000001300000066000000AF
:102F3000130000006700000012000000680000009D
:102F40001200000069000000110000006A0000008B
:102F5000110000006B000000100000006C00000079
:102F6000100000006D0000000F0000006E00000067
:102F70000F0000006F0000000F0000007000000054
:102F80000E000000710000000E0000007200000042
:102F90000E000000730000000D000000740000002F
:102FA0000D000000750000000C000000760000001D
:102FB0000C000000770000000C000000780000000A
:102FC0000B000000790000000B0000007A000000F8
:102FD0000B0000007B0000000B0000007C000000E4
:102FE0000A0000007D0000000A0000000000000050
:102FF0000700000000000000070000001B000000A8
:103000000A0000001B000000350000001400000052
:1030100035000000480000001E00000048000000CD
:103020005F000000280000005F0000007B0000003F
:103030003C0000007B0000009800000046000000FB
:103040007D000000B600000050000000B600000047
:10305000BD0000005A000000BD000000EB000000B1
:103060006E000000EB0000004A0100009600000026
:1030700090300008000000207C0000004C1A00087E
:103080000C3100087C000020440400005C1A000899
:103090000000000000000000000000000000000030
:1030A0000000000000000000000000000000000020
:1030B0000000000000000000000000000000000010
:1030C00000000000B80B0000F40100000000000048
:1030D000B80B00000000000000000000000000002D
:1030E00000000000000001020304010203040607BF
:1030F0000809000000A24A040000000000000000CF
:0C3100000102030406070809000000009B
:04000005080000C12E
:00000001FF
